:020000040000FA
:100000000C9479000C94A1000C94A1000C94A10014
:100010000C94A1000C94A1000C94A1000C94D305A5
:100020000C94A1000C94A1000C94A1000C94A100CC
:100030000C94A1000C94A1000C94A1000C94A100BC
:100040000C9455060C94A1000C94A1000C94A100F2
:100050000C94A1000C94A1000C94A1000C94A1009C
:100060000C94A1000C94A1001F1F1F1F1F1F1F1F16
:10007000001F1F1F1F4040404000404040401F1FC6
:100080001F1F004040404040404040000000000032
:10009000240027002A0083007A0071006800000015
:1000A00000002300260029000000000800020100D3
:1000B0000003040700000000000000000102040823
:1000C00010204080010204081020010204081020C2
:1000D00000000000250028002B0004040404040490
:1000E00004040202020202020303030303030200E8
:1000F000680811241FBECFEFD8E0DEBFCDBF13E0EC
:10010000A0E0B1E0E2EEF7E102C005900D92A43765
:10011000B107D9F723E0A4E7B3E001C01D92AC3AE0
:10012000B207E1F710E0C9E7D0E004C02197FE0173
:100130000E941109C837D107C9F70E949F060C9485
:10014000EF0B0C940000AF92BF92CF92DF92EF9230
:10015000FF920F931F93CF93DF936C017B018B0171
:10016000040F151FEB015E01AE18BF08C017D107C1
:1001700059F06991D601ED91FC910190F081E02D4B
:10018000C6010995892B79F7C501DF91CF911F91A0
:100190000F91FF90EF90DF90CF90BF90AF900895B8
:1001A000833081F028F4813099F08230A9F00895ED
:1001B0008730A9F08830C9F08430B1F48091800094
:1001C0008F7D03C0809180008F7780938000089599
:1001D00084B58F7784BD089584B58F7DFBCF8091E2
:1001E000B0008F778093B00008958091B0008F7D2C
:1001F000F9CF1F93CF93DF93282F30E0F901E85513
:10020000FF4F8491F901E454FF4FD491F901E65274
:10021000FF4FC491CC23A9F0162F81110E94D0006A
:10022000EC2FF0E0EE0FFF1FE053FF4FA591B491CC
:100230008FB7F894EC91111108C0D095DE23DC93B0
:100240008FBFDF91CF911F910895DE2BF8CFCF9311
:10025000DF9390E0FC01E454FF4F249186529F4FBE
:10026000FC0184918823D1F090E0880F991FFC0154
:10027000E457FF4FA591B491FC01E053FF4FC591A6
:10028000D491623071F49FB7F8943C91822F80959D
:1002900083238C93E8812E2B28839FBFDF91CF91FE
:1002A00008958FB7F894EC912E2B2C938FBFF6CF37
:1002B0004F925F926F927F928F929F92AF92BF9276
:1002C000CF92DF92EF92FF920F931F93CF938C0107
:1002D0004A015B01809150018D3099F08F3F09F404
:1002E0006FC0CF911F910F91FF90EF90DF90CF9053
:1002F000BF90AF909F908F907F906F905F904F9046
:100300000895EEEEF0E0C491C7FDEBCF61E08DE023
:100310000E9427012801712C612CCC23E9F098015F
:1003200050E040E0C23009F0BAC028013A0160E96B
:1003300070ED83E090E00E948E0869017A0181E00F
:10034000C81AD108E108F1088FEFC816D104E104FA
:10035000F10409F00CF4DCC068E478EE81E090E090
:10036000A30192010E948E0869017A0181E0C81AF6
:10037000D108E108F108CC2309F4CCC0C23009F05F
:100380001BC18FEFC816D104E104F10409F00CF48D
:100390001BC164E274EF80E090E0A30192010E942F
:1003A0008E0869017A0181E0C81AD108E108F108D4
:1003B00085E09091B100987F892B8093B100C6C0F1
:1003C0008DE080935001EEEEF0E0C491CF3F09F450
:1003D00088CFC13021F150F0C23009F43EC0C7FDD2
:1003E00080CF61E08DE00E94270199CF14BC15BC3D
:1003F00084B5826084BD85B5816085BDE7EEF0E09F
:10040000E491F0E0EE0FFF1FE053FF4F85919491D0
:10041000E9ECF0E0E491E0938703C0E077CF10923D
:10042000800010928100809181008860809381001B
:1004300080918100816080938100E7EEF0E0E4919B
:10044000F0E0EE0FFF1FE053FF4F85919491E9EC30
:10045000F0E0E491E093860359CF1092B00010923F
:10046000B1008091B00082608093B0008091B100B3
:1004700081608093B100E7EEF0E0E491F0E0EE0FF0
:10048000FF1FE053FF4F85919491909385038093D4
:100490008403E9ECF0E0E491E093830337CF60E07C
:1004A00072E18AE790E00E948E0869017A0181E09A
:1004B000C81AD108E108F108C13009F047C080919D
:1004C0008100887F81608093810040C0D092890044
:1004D000C092880020938C0330938D0340938E0349
:1004E00050938F0380916F00826080936F00F9CEEC
:1004F000C092B300209388033093890340938A030A
:1005000050938B0380917000826080937000E9CEDD
:1005100083E04FCF93E08FEFC816D104E104F104DC
:1005200089F084F062E17AE780E090E0A301920133
:100530000E948E0869017A0181E0C81AD108E10899
:10054000F10894E085B5887F892B85BDD801AA0F75
:10055000BB1FA50194010E94AD0828EE33E040E0E6
:1005600050E00E94B808C13009F4B0CFC23009F49D
:10057000BFCFC111B6CEC7BC209390033093910377
:10058000409392035093930380916E008260809316
:100590006E00A7CE62E17AE780E090E0A3019201CD
:1005A0000E948E0869017A0181E0C81AD108E10829
:1005B000F108C1E086E0FDCE8FEFC816D104E1045A
:1005C000F10409F03CF7C1E084E0F3CE3FB7F894C2
:1005D0008091790390917A03A0917B03B0917C0381
:1005E00026B5A89B05C02F3F19F00196A11DB11D8E
:1005F0003FBFBA2FA92F982F8827BC01CD01620FCA
:10060000711D811D911D42E0660F771F881F991F84
:100610004A95D1F708958F929F92AF92BF92CF9251
:10062000DF92EF92FF924B015C010E94E6026B01A8
:100630007C010E94E6026C197D098E099F09683EC3
:10064000734081059105A8F321E0821A9108A10861
:10065000B10888EEC80E83E0D81EE11CF11C81149D
:100660009104A104B10429F7FF90EF90DF90CF909F
:10067000BF90AF909F908F900895089590E080E094
:100680000895FC0101900020E9F73197AF01481B64
:10069000590BBC0184E993E00C94A300CF93DF9342
:1006A000EC0160E08E810E94F90061E08E810E9481
:1006B000F90060E08E810E94F9008BE891E00197DB
:1006C000F1F7DF91CF910895CF92DF92EF92FF92F1
:1006D0000F931F93CF93DF936C017C0187E0E80EAB
:1006E000F11CD0E0C0E0062F10E0B8010C2E02C0D3
:1006F000759567950A94E2F76170F70181917F0122
:100700000E94F9002196C430D10579F7C601DF9126
:10071000CF911F910F91FF90EF90DF90CF900C94AD
:100720004E03CF92DF92EF92FF920F931F93CF93DE
:10073000DF93EC01F62E642F8C810E94F9008D81ED
:100740008F3F19F060E00E94F9000F2D10E08F85B7
:1007500084FF25C06E0187E0C80ED11CF12CE12C6E
:10076000B8010E2C02C0759567950A94E2F7617086
:10077000F60181916F010E94F900FFEFEF1AFF0A65
:1007800088E0E816F10461F7CE01DF91CF911F9167
:100790000F91FF90EF90DF90CF900C944E03B80133
:1007A00084E0759567958A95E1F7CE010E94640310
:1007B0006F2DCE01DF91CF911F910F91FF90EF90A0
:1007C000DF90CF900C94640341E00E94910381E09C
:1007D00090E0089540E00C949103443008F043E029
:1007E000FC012389421710F04FEF420FFC01E40F88
:1007F000F11D2489620F60680C94EA038F929F9226
:10080000AF92BF92CF92DF92FF920F931F93CF933D
:10081000DF93CDB7DEB72C970FB6F894DEBF0FBECF
:10082000CDBF9F938F9388E393E09F938F93CE01E7
:1008300001966C019F938F930E9417090F900F9060
:100840000F900F900F900F90F12CF601EF0DF11D0E
:100850001081112309F4DFC00F2D000F0F0D000FC1
:1008600040E0602F80918103909182030E94ED030C
:1008700090EE910F9C879F3538F5A5E01A02500144
:100880001124912C812C8091810390918203F50198
:10089000E80DF91DE354FF4F2081237030E0B901CA
:1008A000660F771F627035952795620FDC01ED9119
:1008B000FC910190F081E02D0995BFEF8B1A9B0A06
:1008C00085E088169104F9F641E0602F809181035C
:1008D000909182030E94ED039C859F3560F5A5E011
:1008E0001A0250011124912C812C80918103909146
:1008F0008203F501E80DF91DE354FF4F208130E03C
:100900003595279535952795237030E0B901660F09
:10091000771F627035952795620FDC01ED91FC9190
:100920000190F081E02D0995BFEF8B1A9B0A85E0BD
:1009300088169104D1F642E0602F80918103909156
:1009400082030E94ED039C859F3568F5A5E01A029D
:1009500040011124B12CA12C80918103909182033C
:10096000F401EA0DFB1DE354FF4F208130E0E4E089
:1009700035952795EA95E1F7237030E0B901660FC8
:10098000771F627035952795620FDC01ED91FC9120
:100990000190F081E02D0995BFEFAB1ABB0A85E00D
:1009A000A816B104C9F643E0602F809181039091AD
:1009B00082030E94ED039C859F3558F5A5E01A023D
:1009C0005001112410E000E0F501E00FF11FE354A5
:1009D000FF4F208130E08091810390918203B90123
:1009E00046E0759567954A95E1F7660F771F627047
:1009F000220F232F221F330B620FDC01ED91FC919C
:100A00000190F081E02D09950F5F1F4F0530110512
:100A1000D9F6F3941ACF2C960FB6F894DEBF0FBE1A
:100A2000CDBFDF91CF911F910F91FF90DF90CF90BD
:100A3000BF90AF909F908F90089561E00E94EA036D
:100A40008BE39FE10197F1F70895CF93DF93613036
:100A500029F09091A30398609093A3036093A70358
:100A60001092A80390E49093A9038093AA03805C5A
:100A70008093AB0361E0809198030E9427018091ED
:100A800099038F3F19F061E00E94270161E0809196
:100A90009A030E942701C4E9D3E09E012459334000
:100AA0008091A30384FD0BC084E090E02196281779
:100AB000390744F461E08E810E942701EECF88E07F
:100AC00090E0F4CF8BE39DE00197F1F760E0809137
:100AD00098030E94F90060E080919A030E94F90057
:100AE000809199038F3F19F060E00E94F9006091B6
:100AF000A30364FD3CC063E084E993E00E946403C7
:100B0000CBE4D6E4CE010197F1F763E084E993E00A
:100B10000E9464032197F1F763E084E993E00E9467
:100B2000640383E592E00197F1F762E084E993E0E2
:100B30000E9464036091A303606284E993E00E94D1
:100B4000EA0384E08093A4036CE084E993E00E94CC
:100B5000EA0384E993E00E941D0582E08093A503E7
:100B600066E084E993E0DF91CF910C94EA03606240
:100B700084E993E00E94EA038BE496E40197F1F79D
:100B80006091A303606284E993E00E94EA0383E535
:100B900092E00197F1F76091A303606284E993E02A
:100BA0000E94EA03C7CF1F920F920FB60F92112433
:100BB0002F933F934F935F936F937F938F939F9365
:100BC000AF93BF93EF93FF93809188039091890334
:100BD000A0918A03B0918B03892B8A2B8B2BD1F1A7
:100BE00090918303E0918403F091850380818927AC
:100BF00080838091880390918903A0918A03B091AA
:100C00008B03181619061A061B069CF4809188039C
:100C100090918903A0918A03B0918B030197A10958
:100C2000B1098093880390938903A0938A03B093BA
:100C30008B03FF91EF91BF91AF919F918F917F9126
:100C40006F915F914F913F912F910F900FBE0F9039
:100C50001F90189580915001EEEEF0E0E4919FEF27
:100C600090935001E13051F030F0E23069F060E0F3
:100C70000E94F900DECF10926E00F9CF90916F00C4
:100C80009D7F90936F00F3CF909170009D7F909324
:100C9000700091E09093B0009091B100987F9460C3
:100CA0009093B1001092B300E2CF1F920F920FB653
:100CB0000F9211242F933F938F939F93AF93BF93E2
:100CC0008091750390917603A0917703B09178039A
:100CD0003091740323E0230F2D3758F50196A11DA1
:100CE000B11D209374038093750390937603A093B2
:100CF0007703B09378038091790390917A03A09160
:100D00007B03B0917C030196A11DB11D80937903F3
:100D100090937A03A0937B03B0937C03BF91AF9130
:100D20009F918F913F912F910F900FBE0F901F9029
:100D3000189526E8230F0296A11DB11DD2CFCF939F
:100D4000DF93CDB7DEB72A970FB6F894DEBF0FBE9C
:100D5000CDBF789484B5826084BD84B5816084BD44
:100D600085B5826085BD85B5816085BD80916E0049
:100D7000816080936E00109281008091810082607A
:100D800080938100809181008160809381008091B7
:100D900080008160809380008091B10084608093A6
:100DA000B1008091B00081608093B00080917A00A2
:100DB000846080937A0080917A00826080937A00C8
:100DC00080917A00816080937A0080917A008068B7
:100DD00080937A001092C10062E082E00E942701B5
:100DE00061E086E00E94270161E08DE00E9427011A
:100DF0004CE251E060E070E08CE494E00E94580125
:100E000064E084E10E94250584E993E090938203E5
:100E10008093810376E9E72E70E0F72E10E04E0113
:100E200089E0880E911CF70165917491CE010196BD
:100E30000E948708A0908103B0908203612F6064B4
:100E4000C5010E94EA03DE0111966D01F601619170
:100E50006F01D501ED91FC910190F081E02DC5016C
:100E600009958C149D0491F7B2E0EB0EF11C185F0C
:100E70001032C9F684E993E00E941D058BE393E0EC
:100E80000E94410341E060E084E993E00E94ED03A9
:100E900085E493E00E94410342E060E084E993E04E
:100EA0000E94ED0380E593E00E94410343E060E08F
:100EB00084E993E00E94ED038FE593E00E944103F3
:100EC00068EC70E080E090E00E940B034CE251E09F
:100ED00060E070E080E293E00E94580160E273E01D
:100EE00080E090E00E940B0384E993E00E941D05DE
:100EF00040E060E080918103909182030E94ED03C5
:100F000000E011E060E5E62E61E0F62E80918103BD
:100F100090918203F80161918F01DC01ED91FC91C8
:100F20000190F081E02D0995E016F10679F76CED5E
:100F300075E080E090E00E940B0388248A9433E0FF
:100F4000932EA12CB12C4AE0C42ED12C50E0E52EDA
:100F500050E0F52E80918103909182030E941D053F
:100F6000B0E4B0937C0080917A00806480937A0032
:100F700080917A0086FDFCCF809178000091790005
:100F8000102F082FB801012E000C880B990B24E0BC
:100F9000660F771F881F991F2A95D1F7A501940125
:100FA0000E948E0829013A01E4E04E0E511C611C9A
:100FB000711CC801B6010E94E9088B01709380037F
:100FC00060937F0340E060E084E993E00E94ED03DA
:100FD000EAEAF0E08491EEEBF0E02490ECEDF0E052
:100FE0003490332009F454C081110E94D000E32DC5
:100FF000F0E0EE0FFF1FE256FF4FA591B4918C91E8
:10100000282209F445C0C8010E94FE0340E063E1C4
:1010100084E993E00E94ED038EE693E00E94410391
:1010200000917D0310917E0380917F039091800356
:10103000865491098297C0F161E086E00E94F90030
:101040000530110574F444EF51E060E070E088EB86
:1010500091E00E9458010F5F1F4F10937E03009391
:101060007D0364EF71E080E090E00E940B0360E09C
:1010700086E00E94F90064EF71E080E090E00E9459
:101080000B03E114F10409F465CF0E94000062CF64
:10109000C2010E94FE0344E062E184E993E00E9401
:1010A000ED0380E793E0BACF60E086E00E94F900AC
:1010B00010161106B4F610927E0310927D034CE2D6
:1010C00051E060E070E08CE494E00E945801C9CFE8
:1010D000E4E9F3E01382128285E591E09183808355
:1010E0008CE084838FEF85838BE0868387E0878322
:1010F00088E0808789E081878AE08287138614866A
:1011000015861686178661E080E10C942505FB01A3
:10111000DC0105900D920020E1F70895052E97FB64
:101120001EF400940E94A50857FD07D00E94B8083D
:1011300007FC03D04EF40C94A508509540953095CB
:1011400021953F4F4F4F5F4F089590958095709533
:1011500061957F4F8F4F9F4F08950E94DA08A59F9A
:10116000900DB49F900DA49F800D911D11240895A2
:10117000A1E21A2EAA1BBB1BFD010DC0AA1FBB1F9B
:10118000EE1FFF1FA217B307E407F50720F0A21B0D
:10119000B30BE40BF50B661F771F881F991F1A947A
:1011A00069F760957095809590959B01AC01BD01A4
:1011B000CF010895A29FB001B39FC001A39F700DFE
:1011C000811D1124911DB29F700D811D1124911D4F
:1011D000089597FB072E16F4009407D077FD09D0E9
:1011E0000E94FD0807FC05D03EF4909581959F4F25
:1011F0000895709561957F4F0895AA1BBB1B51E11F
:1012000007C0AA1FBB1FA617B70710F0A61BB70B76
:10121000881F991F5A95A9F780959095BC01CD011B
:101220000895EE0FFF1F0590F491E02D0994AEE0B4
:10123000B0E0EDE1F9E00C94C60B0D891E8986E063
:101240008C831A8309838FEF9FE79E838D83AE0182
:10125000475E5F4F6F89788DCE0101960E943A09F3
:101260002F813885020F131FF80110822E96E4E0BB
:101270000C94E20BABE0B0E0E0E4F9E00C94B80BC6
:101280007C013B018A01FC0117821682838181FF68
:10129000C8C1CE0101965C01F7019381F30193FD72
:1012A000859193FF81913F01882309F453C18532D1
:1012B00039F493FD859193FF81913F01853229F4A3
:1012C000B70190E00E942A0BE7CF912C212C312C02
:1012D000FFE1F31538F08B3211F190F4803209F10F
:1012E000833229F137FC3CC020ED280F2A3050F51D
:1012F00036FE20C08AE0989E200D1124922E06C052
:101300008D3291F0803371F7689430F8F30193FDDA
:10131000859193FF81913F018111DACF21C06894BB
:1013200031F8689432F8F2CF689433F8EFCF6894CC
:1013300034F8ECCFEAE02E9E200D1124222E689482
:1013400035F8E4CF8E3229F436FC04C1689436F8BF
:10135000DDCF8C3619F4689437F8D8CF8836B1F2DF
:10136000982F9F7D95549330E0F08336A1F1833719
:10137000C1F1833509F063C02801F2E04F0E511C22
:10138000F801C080D180692D70E036FC02C06FEF9B
:101390007FEFC6010E94140B4C01689437F882015C
:1013A0000AC00C5F1F4FFFE3F98388248394912CBC
:1013B0006501E89437F833FE2DC0522C8114910456
:1013C00071F5552009F468CFB70180E290E00E94E2
:1013D0002A0B5A94F6CFF801808189830E5F1F4F44
:1013E000E4CF2801F2E04F0E511CF801C080D180FB
:1013F000692D70E036FC02C06FEF7FEFC6010E94DE
:101400001F0B4C018201D5CFB70180E290E00E9412
:101410002A0B2A942814190409F0B0F7CECFF6014C
:1014200037FC859137FE81916F01B70190E00E94F2
:101430002A0B51105A94F1E08F1A9108BFCF8436CD
:1014400019F0893609F077C0F80137FE6BC060816A
:101450007181828193810C5F1F4FF32DFF763F2EA8
:1014600097FF09C090958095709561957F4F8F4F3C
:101470009F4F689437F82AE030E0A5010E945A0B8C
:10148000C82ECA188C2C432C36FE0CC0E89440F8A9
:10149000C91440F434FE05C032FC03C0F32DFE7EB7
:1014A0004F2E892C44FE95C0FE01EC0DF11D80816C
:1014B000803309F087C0242D297E422E842D887028
:1014C000582E43FC95C040FE8FC09C2C821418F40B
:1014D0002C0C922C981844FE91C0B70180E390E048
:1014E0000E942A0B42FE09C088E790E041FE02C03C
:1014F00088E590E0B7010E942A0BC91408F48AC05D
:10150000CA94D12C9FEFC91AD90ACA0CDB1CF60168
:1015100082916F01B70190E00E942A0BAC14BD04C8
:10152000B1F74FCF60817181072E000C880B990BAA
:101530000E5F1F4F92CFD32CE894D4F82AE030E00E
:10154000853739F1232D297FD22E8F3601F148F4CA
:101550008835A9F0F701868197812B96E2E10C94FA
:10156000D40B803749F08837A9F7D4FE02C06894BD
:10157000D2F820E130E00DC06894D4F8F6CF34FE04
:1015800003C0822F8660D82E20E132E002C028E01E
:1015900030E0F801D7FE0FC06081718182819381B4
:1015A0000C5F1F4FA5010E945A0BC82ECA183D2C74
:1015B000E89437F867CF6081718190E080E00E5F3A
:1015C0001F4FF0CF42FC02C0839478CF8394839462
:1015D00075CF842D867809F471CFF6CFB70180E2FC
:1015E00090E00E942A0B83948214C0F3512C73CF95
:1015F000522C5818821408F46ECFF8CF842D8678B8
:1016000009F47BCF8BE241FE80E247FC8DE2B7011B
:1016100090E071CFB70180E390E00E942A0B9A948A
:101620006CCF8FEF9FEF99CFFC0105906150704018
:101630000110D8F7809590958E0F9F1F0895FC019B
:101640006150704001900110D8F7809590958E0FF1
:101650009F1F08950F931F93CF93DF93182F092F88
:10166000EB018B8181FD09C01FEF0FEF812F902FC0
:10167000DF91CF911F910F91089582FF14C02E81A9
:101680003F818C819D81281739073CF4E881F981DD
:10169000CF0101969983888310838E819F81019663
:1016A0009F838E83E3CFE885F985812F0995892B68
:1016B000A1F3DACFFA01AA27283051F1203181F1C4
:1016C000E8946F936E7F6E5F7F4F8F4F9F4FAF4F4A
:1016D000B1E03ED0B4E03CD0670F781F891F9A1F5D
:1016E000A11D680F791F8A1F911DA11D6A0F711D11
:1016F000811D911DA11D20D009F468943F912AE01D
:10170000269F11243019305D3193DEF6CF01089504
:10171000462F4770405D4193B3E00FD0C9F7F6CF35
:10172000462F4F70405D4A3318F0495D31FD4052FD
:10173000419302D0A9F7EACFB4E0A6959795879593
:1017400077956795BA95C9F7009761057105089572
:101750009B01AC010A2E069457954795379527951E
:10176000BA95C9F7620F731F841F951FA01D0895B6
:101770002F923F924F925F926F927F928F929F92A1
:10178000AF92BF92CF92DF92EF92FF920F931F938F
:10179000CF93DF93CDB7DEB7CA1BDB0B0FB6F89440
:1017A000DEBF0FBECDBF09942A88398848885F8480
:1017B0006E847D848C849B84AA84B984C884DF80F1
:1017C000EE80FD800C811B81AA81B981CE0FD11DD5
:1017D0000FB6F894DEBF0FBECDBFED010895F894AB
:1017E000FFCF00000001020202010000000102021E
:1017F00002010000000000000201000200010200DE
:1018000002010000000102000000000003000103CB
:1018100001000301030001010100030000000000BA
:1018200000000202020000000000020202000000AC
:101830000000FF00000000E403A3003E033D03009E
:101840000000000000006F00000007000700147F88
:10185000147F140007041E002313086462364956DF
:1018600020500000070000001C2241000041221C03
:101870000014083E081408083E0808005030000014
:101880000808080808006060000020100804023EF4
:101890005149453E00427F40004261514946214145
:1018A000454B311814127F1027454545393C4A49AC
:1018B0004930017109050336494949360649492924
:1018C0001E00363600000056360000081422410083
:1018D0001414141414004122140802015109063E84
:1018E000415D494E7E0909097E7F494949363E419D
:1018F0004141227F4141413E7F494949417F090998
:1019000009013E4149497A7F0808087F00417F412B
:10191000002040413F017F081422417F4040404069
:101920007F020C027F7F0408107F3E4141413E7FD1
:10193000090909063E4151215E7F09192946464998
:1019400049493101017F01013F4040403F0F304094
:10195000300F3F4030403F6314081463070870089D
:101960000761514945433C4A49291E020408102099
:1019700000417F000004020102044040404040005A
:101980000003040020545454787F484444383844B9
:10199000444420384444487F3854545418087E093D
:1019A00001020C5252523E7F0804047800447D40EC
:1019B000002040443D00007F10284400417F40004B
:1019C0007C041804787C0804047838444444387C47
:1019D00014141408081414187C7C080404084854CF
:1019E000545420043F4440203C4040207C1C204074
:1019F000201C3C4030403C44281028440C5050509F
:101A00003C4464544C44000836414100007F0000CF
:101A10004141360800040204080425640076697A0E
:101A2000746F726F6E7900546F74682054616D61C9
:101A3000730074616D61732E657863656C73696F93
:101A40000040676D61696C2E636F6D2E636F6D0072
:061A500025006D410000BD
:107800000C94343C0C94513C0C94513C0C94513CE1
:107810000C94513C0C94513C0C94513C0C94513CB4
:107820000C94513C0C94513C0C94513C0C94513CA4
:107830000C94513C0C94513C0C94513C0C94513C94
:107840000C94513C0C94513C0C94513C0C94513C84
:107850000C94513C0C94513C0C94513C0C94513C74
:107860000C94513C0C94513C11241FBECFEFD8E036
:10787000DEBFCDBF11E0A0E0B1E0ECE9FFE702C060
:1078800005900D92A230B107D9F712E0A2E0B1E065
:1078900001C01D92AD30B107E1F70E942D3D0C945F
:1078A000CC3F0C94003C982F959595959595959582
:1078B000905D8F708A307CF0282F295A8091C0000B
:1078C00085FFFCCF9093C6008091C00085FFFCCF60
:1078D0002093C6000895282F205DF0CF982F809127
:1078E000C00085FFFCCF9093C6000895EF92FF92F1
:1078F0000F931F93EE24FF2487018091C00087FD22
:1079000017C00894E11CF11C011D111D81E4E8164B
:1079100082E4F8068FE0080780E0180770F3E09132
:107920000401F091050109958091C00087FFE9CF1E
:107930008091C6001F910F91FF90EF9008950E94D3
:10794000763C982F8091C00085FFFCCF9093C600B5
:1079500091362CF490330CF09053892F089597555D
:10796000892F08951F930E949F3C182F0E949F3CCF
:107970001295107F810F1F9108951F93182F882350
:1079800021F00E94763C1150E1F71F9108951F935A
:10799000182F0E94763C803249F0809103018F5F5E
:1079A000809303018530C1F01F9108958091C0003C
:1079B00085FFFCCF84E18093C6008091C00085FFE5
:1079C000FCCF1093C6008091C00085FFFCCF80E102
:1079D0008093C6001F910895E0910401F091050184
:1079E00009951F9108950E94763C803241F0809164
:1079F00003018F5F80930301853081F008958091AA
:107A0000C00085FFFCCF84E18093C6008091C00058
:107A100085FFFCCF80E18093C6000895E0910401CA
:107A2000F09105010995089540E951E08823A1F0FE
:107A30002D9A28EE33E0FA013197F1F721503040CA
:107A4000D1F72D9828EE33E0FA013197F1F7215064
:107A50003040D1F7815061F708953F924F925F9285
:107A60006F927F928F929F92AF92BF92CF92DF924E
:107A7000EF92FF920F931F93CF93DF93000080E16B
:107A80008093C4001092C50088E18093C10086E015
:107A90008093C2005098589A259A81E00E94143D24
:107AA00024E1F22E9EE1E92E85E9D82E0FE0C02ECA
:107AB00010E1B12EAA24A394B1E49B2EA6E58A2E50
:107AC000F2E57F2EE0E26E2E79E4572E63E5462E36
:107AD00050E5352E0E94763C8033B1F18133B9F107
:107AE000803409F46FC0813409F476C0823409F41B
:107AF00085C0853409F488C0803531F1823521F1A3
:107B0000813511F1853509F485C0863509F48DC0BC
:107B1000843609F496C0843709F403C1853709F423
:107B200072C1863709F466C0809103018F5F80932C
:107B30000301853079F6E0910401F0910501099582
:107B40000E94763C803351F60E94F33CC3CF0E94E2
:107B5000763C803249F78091C00085FFFCCFF092DF
:107B6000C6008091C00085FFFCCF9092C600809136
:107B7000C00085FFFCCF8092C6008091C00085FFC9
:107B8000FCCF7092C6008091C00085FFFCCF609250
:107B9000C6008091C00085FFFCCF5092C600809146
:107BA000C00085FFFCCF4092C6008091C00085FFD9
:107BB000FCCF3092C6008091C00085FFFCCFB09210
:107BC000C60088CF0E94763C863808F4BDCF0E945C
:107BD000763C0E94F33C7ECF0E94763C803809F4CC
:107BE0009CC0813809F40BC1823809F43CC1883942
:107BF00009F48FC080E00E94C73C6CCF84E10E94F2
:107C0000BD3C0E94F33C66CF85E00E94BD3C0E94D3
:107C1000F33C60CF0E94763C809306010E94763C44
:107C2000809307010E94F33C55CF0E94763C80333D
:107C300009F41DC183E00E94BD3C80E00E94C73C66
:107C400049CF0E94763C809309020E94763C809343
:107C5000080280910C028E7F80930C020E94763C79
:107C6000853409F415C18091080290910902892B8D
:107C700089F000E010E00E94763CF801E85FFE4FDA
:107C800080830F5F1F4F80910802909109020817AF
:107C9000190788F30E94763C803209F045CF809125
:107CA0000C0280FF01C16091060170910701660F0F
:107CB000771F7093070160930601A0910802B091AD
:107CC00009021097C9F0E8E0F1E09B01AD014E0F09
:107CD0005F1FF999FECF32BD21BD819180BDFA9A17
:107CE000F99A2F5F3F4FE417F50799F76A0F7B1F4B
:107CF00070930701609306018091C00085FFFCCF5F
:107D0000F092C6008091C00085FFFCCFB092C60003
:107D1000E1CE83E00E94C73CDDCE82E00E94C73CFA
:107D2000D9CE0E94763C809309020E94763C8093D3
:107D300008028091060190910701880F991F909386
:107D40000701809306010E94763C853409F4A6C0A1
:107D500080910C028E7F80930C020E94763C8032D0
:107D600009F0B8CE8091C00085FFFCCFF092C6002C
:107D7000609108027091090261157105B9F140E046
:107D800050E080910C02A82FA170B82FB27011C0E2
:107D9000BB2309F45CC0E0910601F0910701319624
:107DA000F0930701E09306014F5F5F4F46175707B7
:107DB000E8F4AA2369F3F999FECF209106013091E6
:107DC000070132BD21BDF89A90B58091C00085FFB2
:107DD000FCCF9093C6002F5F3F4F30930701209355
:107DE00006014F5F5F4F4617570718F38091C00099
:107DF00085FDE5CE8091C00085FFF8CFE0CE81E023
:107E00000E94C73C67CE0E94763C803209F08CCE3F
:107E10008091C00085FFFCCFF092C6008091C00029
:107E200085FFFCCFE092C6008091C00085FFFCCFAB
:107E3000D092C6008091C00085FFFCCFC092C600E2
:107E40008091C00085FFFCCFB092C60043CEE09188
:107E50000601F091070194918091C00085FFFCCF4D
:107E60009093C6009CCF80E10E94C73C33CE0E9415
:107E7000763C0E94763C182F0E94763C112309F430
:107E800083C0113009F484C08FE00E94C73C22CE29
:107E900080910C02816080930C02E5CE80910C02EF
:107EA000816080930C0259CF809107018823880F4D
:107EB000880B8A2180930B02809106019091070123
:107EC000880F991F90930701809306018091080203
:107ED00080FF09C080910802909109020196909359
:107EE000090280930802F894F999FECF1127E091D6
:107EF0000601F0910701C8E0D1E08091080290915D
:107F00000902103091F40091570001700130D9F34B
:107F100003E000935700E89500915700017001308D
:107F2000D9F301E100935700E89509901990009169
:107F3000570001700130D9F301E000935700E89534
:107F40001395103498F011270091570001700130FB
:107F5000D9F305E000935700E895009157000170B0
:107F60000130D9F301E100935700E895329602976A
:107F700009F0C7CF103011F00296E5CF112480919F
:107F8000C00085FFB9CEBCCE8EE10E94C73CA2CD19
:0E7F900085E90E94C73C9ECDF894FFCF80008B
:00000001FF
