:020000040000FA
:1000000057C07BC07AC009C578C077C076C075C0BC
:1000100074C07BC572C071C070C06FC06EC06DC04F
:100020006CC06BC06AC01F1F1F1F1F1F1F1F001F38
:100030001F1F1F4040404000404040401F1F1F1FE7
:100040000040404040404040400000000000370079
:1000500034003100410038002F002600000000006D
:1000600036003300300000000000000000000003F4
:100070000406000000000000000001020408102037
:100080004080010204081020010204081020000032
:1000900000003800350032000404040404040404A1
:1000A00002020202020203030303030302004307E6
:1000B00011241FBECFE5D4E0DEBFCDBF12E0A0E625
:1000C000B0E0E2E6F5E102C005900D92A43DB10773
:1000D000D9F723E0A4EDB2E001C01D92A730B2072A
:1000E000E1F710E0C8E5D0E003C02197FE016BD72F
:1000F000C735D107D1F753D532CA82CFAF92BF925D
:10010000CF92DF92EF92FF920F931F93CF93DF93E3
:100110006C017B018B01040F151FEB015E01AE1812
:10012000BF08C017D10759F06991D601ED91FC9134
:100130000190F081E02DC6010995892B79F7C50161
:10014000DF91CF911F910F91FF90EF90DF90CF90B3
:10015000BF90AF900895843041F0863049F08330ED
:1001600051F48FB58F778FBD08958FB58F7DFBCFFD
:1001700085B58F7D85BD08951F93CF93DF93282F7D
:1001800030E0F901EA59FF4F8491F901E658FF4F39
:10019000D491F901E856FF4FC491CC23A1F0162F5A
:1001A0008111D9DFEC2FF0E0EE0FFF1FE257FF4F78
:1001B000A591B4918FB7F894EC91111108C0D09526
:1001C000DE23DC938FBFDF91CF911F910895DE2B4B
:1001D000F8CFCF93DF9390E0FC01E658FF4F2491D6
:1001E00088569F4FFC0184918823D1F090E0880FBE
:1001F000991FFC01E65BFF4FA591B491FC01E2570A
:10020000FF4FC591D491623071F49FB7F8943C913F
:10021000822F809583238C93E8812E2B28839FBF88
:10022000DF91CF9108958FB7F894EC912E2B2C93FA
:100230008FBFF6CF4F925F926F927F928F929F9275
:10024000AF92BF92CF92DF92EF92FF920F931F93E4
:10025000CF932091B0002D3091F02F3FB1F0CF918E
:100260001F910F91FF90EF90DF90CF90BF90AF90D4
:100270009F908F907F906F905F904F900895ECEAE1
:10028000F0E0C491C7FDEBCF3FC02DE02093B0005C
:10029000ECEAF0E0C491CF3F11F3C130F1F0C2308D
:1002A00089F715BC15BC25B5286025BD25B521608D
:1002B00025BDE5EAF0E0E491F0E0EE0FFF1FE25724
:1002C000FF4F259134913093E5022093E402E7E853
:1002D000F0E0E491E093E30217C01FBC1EBC2EB512
:1002E00028602EBD2EB521602EBDE5EAF0E0E49138
:1002F000F0E0EE0FFF1FE257FF4F25913491E7E842
:10030000F0E0E491E093E6024A015B018C0161E0D8
:100310008DE05FDF2801712C612C8C2F8D7F09F01F
:1003200063C0C230B1F460E970ED83E090E0A301F6
:100330009801CED569017A0181E0C81AD108E10897
:10034000F1088FEFC816D104E104F10409F00CF4B0
:100350009DC068E478EE81E090E0A3019201B8D5F9
:1003600069017A0181E0C81AD108E108F108CC23BB
:1003700009F485C0C23009F06AC08FEFC816D104F5
:10038000E104F10409F00CF469C064E274EF80E068
:1003900090E0A30192019CD569017A0181E0C81A1D
:1003A000D108E108F10895E085B5887F982B95BDC7
:1003B000D801AA0FBB1FA5019401A6D528EE33E0F2
:1003C00040E050E0ABD5C13021F1C23009F047CF59
:1003D000C3BC2093E7023093E8024093E9025093B4
:1003E000EA0289B7806821C060E072E18AE790E0A4
:1003F000A30198016DD569017A0181E0C81AD1087D
:10040000E108F108C130A1F68EB5887F81608EBD0C
:10041000CFCFDBBCCABC2093EB023093EC024093FD
:10042000ED025093EE0289B7806189BF18CF62E177
:100430007AE780E090E0A30192014AD569017A0150
:1004400081E0C81AD108E108F10896E0ADCF8FEF3E
:10045000C816D104E104F10409F04CF794E0A4CFEC
:1004600062E17AE780E090E0A301920131D5690171
:100470007A0181E0C81AD108E108F108EFCF8FEFC7
:10048000C816D104E104F10409F054F793E08CCFCD
:100490003FB7F8948091D9029091DA02A091DB02E3
:1004A000B091DC0222B708B600FE05C02F3F19F05C
:1004B0000196A11DB11D3FBFBA2FA92F982F8827E4
:1004C000BC01CD01620F711D811D911D42E0660FBF
:1004D000771F881F991F4A95D1F708958F929F9291
:1004E000AF92BF92CF92DF92EF92FF924B015C01ED
:1004F000CFDF6B017C01CCDF6C197D098E099F0970
:10050000683E734081059105B0F321E0821A91089D
:10051000A108B10888EEC80E83E0D81EE11CF11CCA
:1005200081149104A104B10431F7FF90EF90DF90A2
:10053000CF90BF90AF909F908F900895089590E0D6
:1005400080E00895FC0101900020E9F73197AF01A8
:10055000481B590BBC018FEE92E0D0CDCF93DF93B7
:10056000EC0160E08E8108DE61E08E8105DE60E0F6
:100570008E8102DE8BE891E00197F1F7DF91CF9158
:100580000895CF92DF92EF92FF920F931F93CF9334
:10059000DF936C017C0187E0E80EF11CD0E0C0E045
:1005A000062F10E0B8010C2E02C0759567950A94CD
:1005B000E2F76170F70181917F01DEDD2196C430A1
:1005C000D10581F7C601DF91CF911F910F91FF9067
:1005D000EF90DF90CF90C2CFCF92DF92EF92FF9259
:1005E0000F931F93CF93DF93EC01F62E642F8C8132
:1005F000C3DD8D818F3F11F060E0BEDD0F2D10E077
:100600008F8584FF23C06E0187E0C80ED11CF12CBA
:10061000E12CB8010E2C02C0759567950A94E2F79B
:100620006170F60181916F01A7DDFFEFEF1AFF0AFC
:1006300088E0E816F10469F7CE01DF91CF911F91B0
:100640000F91FF90EF90DF90CF9088CFB80184E0BA
:10065000759567958A95E1F7CE0193DF6F2DCE01F1
:10066000DF91CF911F910F91FF90EF90DF90CF908E
:1006700088CF41E0B1DF81E090E0089540E0ACCF69
:10068000443008F043E0FC012389421710F04FEF9B
:10069000420FFC01E40FF11D2489620F6068EECF68
:1006A0008F929F92AF92BF92CF92DF92FF920F9361
:1006B0001F93CF93DF93CDB7DEB72C970FB6F89487
:1006C000DEBF0FBECDBF9F938F9388E992E09F93CB
:1006D0008F93CE0101966C019F938F937AD40F90E4
:1006E0000F900F900F900F900F90F12CF601EF0DDF
:1006F000F11D1081112309F4DBC00F2D000F0F0D28
:10070000000F40E0602F8091E1029091E202B8DF9B
:1007100090EE910F9C879F3538F5A5E01A025001A5
:100720001124912C812C8091E1029091E202F5013B
:10073000E80DF91DE35EFF4F2081237030E0B90121
:10074000660F771F627035952795620FDC01ED917A
:10075000FC910190F081E02D0995BFEF8B1A9B0A67
:1007600085E088169104F9F641E0602F8091E1025E
:100770009091E20285DF9C859F3560F5A5E01A0225
:1007800050011124912C812C8091E1029091E20280
:10079000F501E80DF91DE35EFF4F208130E035954E
:1007A000279535952795237030E0B901660F771F9F
:1007B000627035952795620FDC01ED91FC910190F7
:1007C000F081E02D0995BFEF8B1A9B0A85E0881612
:1007D0009104D1F642E0602F8091E1029091E20213
:1007E0004FDF9C859F3568F5A5E01A024001112472
:1007F000B12CA12C8091E1029091E202F401EA0D6A
:10080000FB1DE35EFF4F208130E0E4E03595279546
:10081000EA95E1F7237030E0B901660F771F627047
:1008200035952795620FDC01ED91FC910190F081E7
:10083000E02D0995BFEFAB1ABB0A85E0A816B104FD
:10084000C9F643E0602F8091E1029091E20218DF47
:100850009C859F3558F5A5E01A025001112410E03F
:1008600000E0F501E00FF11FE35EFF4F208130E073
:100870008091E1029091E202B90146E07595679599
:100880004A95E1F7660F771F6270220F232F221F10
:10089000330B620FDC01ED91FC910190F081E02DB2
:1008A00009950F5F1F4F05301105D9F6F3941ECF40
:1008B0002C960FB6F894DEBF0FBECDBFDF91CF915F
:1008C0001F910F91FF90DF90CF90BF90AF909F90BE
:1008D0008F90089561E0D2DE8BE39FE10197F1F7FD
:1008E0000895CF93DF93613029F09091FE029860D4
:1008F0009093FE02609302031092030390E490939E
:10090000040380930503805C8093060361E080917B
:10091000F3025FDC8091F4028F3F11F061E059DC5B
:1009200061E08091F50255DCCFEED2E09E012F5EB2
:1009300032408091FE0284FD0AC084E090E021965E
:10094000281739073CF461E08E8143DCEFCF88E063
:1009500090E0F5CF8BE39DE00197F1F760E08091A7
:10096000F3020ADC60E08091F50206DC8091F4027B
:100970008F3F11F060E000DC6091FE0264FD34C046
:1009800063E08FEE92E0FDDDCBE4D6E4CE0101978B
:10099000F1F763E08FEE92E0F4DD2197F1F763E089
:1009A0008FEE92E0EEDD83E592E00197F1F762E0F1
:1009B0008FEE92E0E6DD6091FE0260628FEE92E0E3
:1009C0005DDE84E08093FF026CE08FEE92E056DE05
:1009D0008FEE92E07FDF82E08093000366E08FEE8F
:1009E00092E0DF91CF914ACE60628FEE92E046DED8
:1009F0008BE496E40197F1F76091FE0260628FEE5E
:100A000092E03CDE83E592E00197F1F76091FE020F
:100A100060628FEE92E032DECECF1F920F920FB661
:100A20000F9211242F933F934F935F936F937F9374
:100A30008F939F93AF93BF93EF93FF938091E702C0
:100A40009091E802A091E902B091EA02892B8A2BE9
:100A50008B2BD1F19091E302E091E402F091E50259
:100A60008081892780838091E7029091E802A0919C
:100A7000E902B091EA02181619061A061B069CF440
:100A80008091E7029091E802A091E902B091EA0218
:100A90000197A109B1098093E7029093E802A0931E
:100AA000E902B093EA02FF91EF91BF91AF919F915C
:100AB0008F917F916F915F914F913F912F910F9007
:100AC0000FBE0F901F9018958091B000ECEAF0E0F7
:100AD000E4919FEF9093B000E13041F028F0E230D4
:100AE00049F060E049DBDFCF19BEFBCF99B79F7EAD
:100AF00099BFF7CF99B79F7799BF90E495BD95B50A
:100B0000987F946095BD13BCECCF1F920F920FB6E7
:100B10000F9211242F933F938F939F93AF93BF9383
:100B20008091D5029091D602A091D702B091D802BF
:100B30003091D40223E0230F2D3758F50196A11DE3
:100B4000B11D2093D4028093D5029093D602A09336
:100B5000D702B093D8028091D9029091DA02A09185
:100B6000DB02B091DC020196A11DB11D8093D90278
:100B70009093DA02A093DB02B093DC02BF91AF91B5
:100B80009F918F913F912F910F900FBE0F901F90CB
:100B9000189526E8230F0296A11DB11DD2CFCF9341
:100BA000DF93CDB7DEB72A970FB6F894DEBF0FBE3E
:100BB000CDBF789483B7826083BF83B7816083BFE2
:100BC00089B7816089BF1EBC8EB582608EBD8EB52F
:100BD00081608EBD8FB581608FBD85B5846085BD18
:100BE00085B5806485BD329A319A309A379A1AB8A1
:100BF00062E082E0EEDA61E086E0EBDA61E08DE06F
:100C0000E8DA4CE251E060E070E08CE494E012DB62
:100C100064E084E166DE8FEE92E09093E2028093DE
:100C2000E10274E5E72E70E0F72E10E04E0189E056
:100C3000880E911CF70165917491CE01019641D106
:100C4000A090E102B090E202612F6064C50116DD60
:100C5000DE0111966D01F60161916F01D501ED91F3
:100C6000FC910190F081E02DC50109958C149D0443
:100C700091F7B2E0EB0EF11C185F1032D9F68FEE4F
:100C800092E028DE8BE992E05DDC41E060E08FEEEF
:100C900092E0F6DC85EA92E055DC42E060E08FEE1F
:100CA00092E0EEDC80EB92E04DDC43E060E08FEE22
:100CB00092E0E6DC8FEB92E045DC68EC70E080E0EF
:100CC00090E00CDC4CE251E060E070E080E293E008
:100CD000B1DA60E273E080E090E000DC8FEE92E059
:100CE000F9DD40E060E08091E1029091E202C8DC31
:100CF00000E610E060EBE62E60E0F62E8091E10267
:100D00009091E202F80161918F01DC01ED91FC917B
:100D10000190F081E02D0995E016F10679F76CED70
:100D200075E080E090E0DADB88248A9433E0932E4B
:100D3000A12CB12C4AE0C42ED12C50E0E52E50E07D
:100D4000F52E8091E1029091E202C4DDB0E4B7B9E2
:100D5000369A3699FECF84B105B1102F082FB8010D
:100D6000012E000C880B990B24E0660F771F881F5B
:100D7000991F2A95D1F7A5019401AAD029013A011A
:100D8000E4E04E0E511C611C711CC801B601F4D088
:100D90008B017093E0026093DF0240E060E08FEE31
:100DA00092E06EDCE8E6F0E08491ECE7F0E024907D
:100DB000EAE9F0E03490332009F449C08111CBD93D
:100DC000E32DF0E0EE0FFF1FE45AFF4FA591B49121
:100DD0008C912822E1F1C80163DC40E063E18FEEF1
:100DE00092E04EDC8EEC92E0ADDB0091DD021091E2
:100DF000DE028091DF029091E00286549109829791
:100E000080F161E086E0B8D9053011056CF444EF5B
:100E100051E060E070E088EB91E00CDA0F5F1F4F6B
:100E20001093DE020093DD0264EF71E080E090E059
:100E300055DB60E086E0A0D964EF71E080E090E0EF
:100E40004DDBE114F10409F47CCFDAD87ACFC2018A
:100E500027DC44E062E18FEE92E012DC80ED92E06C
:100E6000C3CF60E086E088D910161106ECF6109228
:100E7000DE021092DD024CE251E060E070E08CE4B2
:100E800094E0D8D9D1CFEFEEF2E01382128285EB55
:100E900090E0918380838CE084838FEF85838BE067
:100EA000868387E0878388E0808789E081878AE07E
:100EB00082871386148615861686178661E080E180
:100EC00010CDFB01DC0105900D920020E1F70895A3
:100ED000052E97FB16F400940FD057FD05D01ED0B9
:100EE00007FC02D046F408C05095409530952195F6
:100EF0003F4F4F4F5F4F0895909580957095619546
:100F00007F4F8F4F9F4F08952BD0A59F900DB49F7B
:100F1000900DA49F800D911D11240895A1E21A2E19
:100F2000AA1BBB1BFD010DC0AA1FBB1FEE1FFF1F8D
:100F3000A217B307E407F50720F0A21BB30BE40BDD
:100F4000F50B661F771F881F991F1A9469F7609524
:100F50007095809590959B01AC01BD01CF010895DE
:100F6000A29FB001B39FC001A39F01D0B29F700D9B
:100F7000811D1124911D089597FB072E16F40094EE
:100F800006D077FD08D00BD007FC05D03EF4909535
:100F900081959F4F0895709561957F4F0895AA1B85
:100FA000BB1B51E107C0AA1FBB1FA617B70710F054
:100FB000A61BB70B881F991F5A95A9F78095909586
:100FC000BC01CD010895EE0FFF1F0590F491E02DB7
:100FD0000994AEE0B0E0EEEEF7E098C20D891E890C
:100FE00086E08C831A8309838FEF9FE79E838D832E
:100FF000AE01475E5F4F6F89788DCE01019609D0B3
:101000002F813885020F131FF80110822E96E4E01D
:1010100099C2ABE0B0E0EEE0F8E06AC27C013B01CF
:101020008A01FC0117821682838181FFBAC1CE0139
:1010300001965C01F7019381F30193FD859193FF84
:1010400081913F01882309F449C1853239F493FD28
:10105000859193FF81913F01853221F4B70190E0A2
:10106000B9D1E8CF912C212C312CFFE1F31538F0C8
:101070008B3211F190F4803209F1833229F137FC7F
:101080003CC020ED280F2A3050F536FE20C08AE003
:10109000989E200D1124922E06C08D3291F080333F
:1010A00071F7689430F8F30193FD859193FF819176
:1010B0003F018111DACF21C0689431F8689432F889
:1010C000F2CF689433F8EFCF689434F8ECCFEAE0CD
:1010D0002E9E200D1124222E689435F8E4CF8E32F6
:1010E00029F436FCFBC0689436F8DDCF8C3619F451
:1010F000689437F8D8CF8836B1F2982F9F7D9554F1
:101100009330D8F0833691F18337B1F1833509F00C
:101110005EC02801F2E04F0E511CF801C080D18062
:10112000692D70E036FC02C06FEF7FEFC6013CD145
:101130004C01689437F882010AC00C5F1F4FFFE32F
:10114000F98388248394912C6501E89437F833FE61
:101150002AC0522C8114910459F5552009F46ACF04
:10116000B70180E290E036D15A94F7CFF801808140
:1011700089830E5F1F4FE5CF2801F2E04F0E511C0F
:10118000F801C080D180692D70E036FC02C06FEF9D
:101190007FEFC60114D14C018201D7CFB70180E2A5
:1011A00090E018D12A942814190409F0B8F7D1CF87
:1011B000F60137FC859137FE81916F01B70190E010
:1011C00009D151105A94F1E08F1A9108C3CF843697
:1011D00019F0893609F073C0F80137FE67C06081E5
:1011E0007181828193810C5F1F4FF32DFF763F2E1B
:1011F00097FF09C090958095709561957F4F8F4FAF
:101200009F4F689437F82AE030E0A50113D1C82E2B
:10121000CA188C2C432C36FE0CC0E89440F8C91434
:1012200040F434FE05C032FC03C0F32DFE7E4F2E89
:10123000892C44FE90C0FE01EC0DF11D80818033AD
:1012400009F082C0242D297E422E842D8870582ECC
:1012500043FC8FC040FE89C09C2C821418F42C0CD7
:10126000922C981844FE8BC0B70180E390E0B2D076
:1012700042FE08C088E790E041FE02C088E590E0A9
:10128000B701A8D0C91408F486C0CA94D12C9FEF26
:10129000C91AD90ACA0CDB1CF60182916F01B70189
:1012A00090E098D0AC14BD04B9F757CF608171813C
:1012B000072E000C880B990B0E5F1F4F96CFD32C77
:1012C000E894D4F82AE030E0853731F1232D297FE6
:1012D000D22E8F36F9F040F48835A1F0F7018681DF
:1012E00097812B96E2E120C1803749F08837B1F72A
:1012F000D4FE02C06894D2F820E130E00DC06894BA
:10130000D4F8F6CF34FE03C0822F8660D82E20E1B9
:1013100032E002C028E030E0F801D7FE0EC0608164
:101320007181828193810C5F1F4FA50183D0C82EEC
:10133000CA183D2CE89437F86CCF6081718190E039
:1013400080E00E5F1F4FF1CF42FC02C083947DCF3F
:10135000839483947ACF842D867809F476CFF6CF60
:10136000B70180E290E036D083948214C8F3512C08
:1013700079CF522C5818821408F474CFF8CF842DEA
:10138000867809F47FCF8BE241FE80E247FC8DE254
:10139000B70190E076CFB70180E390E01BD09A943C
:1013A00071CF8FEF9FEF9DCFFC0105906150704092
:1013B0000110D8F7809590958E0F9F1F0895FC011E
:1013C0006150704001900110D8F7809590958E0F74
:1013D0009F1F08950F931F93CF93DF93182F092F0B
:1013E000EB018B8181FD09C01FEF0FEF812F902F43
:1013F000DF91CF911F910F91089582FF14C02E812C
:101400003F818C819D81281739073CF4E881F9815F
:10141000CF0101969983888310838E819F810196E5
:101420009F838E83E3CFE885F985812F0995892BEA
:10143000A1F3DACFFA01AA27283051F1203181F146
:10144000E8946F936E7F6E5F7F4F8F4F9F4FAF4FCC
:10145000B1E03ED0B4E03CD0670F781F891F9A1FDF
:10146000A11D680F791F8A1F911DA11D6A0F711D93
:10147000811D911DA11D20D009F468943F912AE09F
:10148000269F11243019305D3193DEF6CF01089587
:10149000462F4770405D4193B3E00FD0C9F7F6CFB8
:1014A000462F4F70405D4A3318F0495D31FD405280
:1014B000419302D0A9F7EACFB4E0A6959795879516
:1014C00077956795BA95C9F70097610571050895F5
:1014D0009B01AC010A2E06945795479537952795A1
:1014E000BA95C9F7620F731F841F951FA01D089539
:1014F0002F923F924F925F926F927F928F929F9224
:10150000AF92BF92CF92DF92EF92FF920F931F9311
:10151000CF93DF93CDB7DEB7CA1BDB0B0FB6F894C2
:10152000DEBF0FBECDBF09942A88398848885F8402
:101530006E847D848C849B84AA84B984C884DF8073
:10154000EE80FD800C811B81AA81B981CE0FD11D57
:101550000FB6F894DEBF0FBECDBFED010895F8942D
:10156000FFCF0000000102020201000000010202A0
:101570000201000000000000020100020001020060
:10158000020100000001020000000000030001034E
:10159000010003010300010101000300000000003D
:1015A000000002020200000000000202020000002F
:1015B0000000FF0000000039037E009F029E020031
:1015C0000000000000006F00000007000700147F0B
:1015D000147F140007041E00231308646236495662
:1015E00020500000070000001C2241000041221C86
:1015F0000014083E081408083E0808005030000097
:101600000808080808006060000020100804023E76
:101610005149453E00427F400042615149462141C7
:10162000454B311814127F1027454545393C4A492E
:1016300049300171090503364949493606494929A6
:101640001E00363600000056360000081422410005
:101650001414141414004122140802015109063E06
:10166000415D494E7E0909097E7F494949363E411F
:101670004141227F4141413E7F494949417F09091A
:1016800009013E4149497A7F0808087F00417F41AE
:10169000002040413F017F081422417F40404040EC
:1016A0007F020C027F7F0408107F3E4141413E7F54
:1016B000090909063E4151215E7F0919294646491B
:1016C00049493101017F01013F4040403F0F304017
:1016D000300F3F4030403F63140814630708700820
:1016E0000761514945433C4A49291E02040810201C
:1016F00000417F00000402010204404040404000DD
:101700000003040020545454787F4844443838443B
:10171000444420384444487F3854545418087E09BF
:1017200001020C5252523E7F0804047800447D406E
:10173000002040443D00007F10284400417F4000CD
:101740007C041804787C0804047838444444387CC9
:1017500014141408081414187C7C08040408485451
:10176000545420043F4440203C4040207C1C2040F6
:10177000201C3C4030403C44281028440C50505021
:101780003C4464544C44000836414100007F000052
:101790004141360800040204080425640076697A91
:1017A000746F726F6E7900546F74682054616D614C
:1017B000730074616D61732E657863656C73696F16
:1017C0000040676D61696C2E636F6D2E636F6D00F5
:0617D00025006D41000040
:101C000012C02BC02AC029C028C027C026C025C0AA
:101C100024C023C022C021C020C01FC01EC01DC0C0
:101C20001CC01BC01AC011241FBECFE5D4E0DEBF0C
:101C3000CDBF10E0A0E6B0E0E8EEFFE102C0059005
:101C40000D92A236B107D9F711E0A2E6B0E001C0CB
:101C50001D92AA36B107E1F74FC0D2CFEF92FF92A3
:101C60000F931F93EE24FF24870113C00894E11CF7
:101C7000F11C011D111D81E0E81682E1F8068AE7DA
:101C8000080780E0180728F0E0916200F0916300F7
:101C900009955F9BEBCF8CB1992787FD90951F919C
:101CA0000F91FF90EF9008955D9BFECF8CB9089542
:101CB000D5DF803221F484E1F7DF80E1F5DF08959C
:101CC0001F93182FCBDF803231F484E1EDDF812FB9
:101CD000EBDF80E1E9DF1F9108951F93CF93DF933E
:101CE000182FC0E0D0E002C0B9DF2196C117E0F3A1
:101CF000DF91CF911F910895CFE5D4E0DEBFCDBF36
:101D0000000010BC83E389B988E18AB986E880BD08
:101D1000BD9A1092680130E2E0E0F0E02FE088B375
:101D2000832788BBCF010197F1F7215027FFF7CF19
:101D300020E12093680192DF803381F1813399F4AF
:101D40008DDF8032C1F784E1AFDF81E4ADDF86E56E
:101D5000ABDF82E5A9DF80E2A7DF89E4A5DF83E5C9
:101D6000A3DF80E5C7C0803429F478DF8638B0F07F
:101D700075DF14C0813471F471DF803811F482E0B2
:101D80001DC1813811F481E019C1823809F015C1F3
:101D900082E114C1823421F484E19FDF89DFCBCF5B
:101DA000853411F485E0F9CF8035C1F38135B1F385
:101DB0008235A1F3853539F451DF809364004EDF1D
:101DC00080936500EBCF863519F484E086DFF5C09B
:101DD000843609F093C042DF809367013FDF809330
:101DE0006601809169018E7F8093690137DF8534B8
:101DF00029F480916901816080936901C0E0D0E09D
:101E000006E610E005C02ADFF80181938F012196D4
:101E10008091660190916701C817D907A0F31EDF72
:101E2000803209F088CF8091690180FF1FC020E0D7
:101E300030E0E6E6F0E012C0A0916400B0916500E9
:101E40008191082EC5D08091640090916500019623
:101E500090936500809364002F5F3F4F80916601EF
:101E6000909167012817390738F343C0F894E19936
:101E7000FECF1127E0916400F0916500EE0FFF1F87
:101E8000C6E6D0E0809166019091670180FF01C0B5
:101E90000196103051F422D003E000935700E895EA
:101EA0001DD001E100935700E8950990199016D0D4
:101EB00001E000935700E8951395103258F0112770
:101EC0000DD005E000935700E89508D001E100939C
:101ED0005700E8953296029739F0DBCF0091570012
:101EE00001700130D9F30895103011F00296E7CF58
:101EF000112484E1D9DE80E1D7DE1DCF843709F0DB
:101F00004BC0ACDE80936701A9DE80936601A6DE3C
:101F100090916901853421F49160909369010DC01D
:101F20009E7F909369018091640090916500880F75
:101F3000991F909365008093640090DE803209F0D1
:101F4000FACE84E1B1DEC0E0D0E01EC0809169012C
:101F500080FF07C0A0916400B091650031D0802D52
:101F600008C081FD07C0E0916400F0916500E49134
:101F70008E2F9ADE80916400909165000196909377
:101F800065008093640021968091660190916701BD
:101F9000C817D907D8F2AFCF853761F45FDE80323A
:101FA00009F0C9CE84E180DE8EE17EDE83E97CDE4D
:101FB00087E0A0CF863709F0BECE80E081DEBBCEC1
:101FC000E199FECFBFBBAEBBE09A11960DB208956A
:101FD000E199FECFBFBBAEBB0DBA11960FB6F89418
:0A1FE000E29AE19A0FBE0895800016
:00000001FF
